:020000040001F9
:10F0000080FF0020754204009D420400714A040004
:10F01000A1420400A3420400A54204000000000035
:10F020000000000000000000000000008D19020038
:10F03000A9420400000000002D190200AD420400A6
:10F04000894D0400AF42040081940400A1670400CC
:10F05000C1670400AF420400916C0400F57804001D
:10F06000AF420400AF420400AF420400AF420400CC
:10F07000AF420400AF420400AF420400AF420400BC
:10F08000AF42040071500200AF420400AF420400DE
:10F09000B5460400AF42040005500400AF4204002E
:10F0A000AF420400AF420400AF420400AF4204008C
:10F0B000AF420400AF420400000000000000000066
:10F0C000AF420400AF420400AF420400E167040015
:10F0D000AF420400AF420400B55C03000000000032
:10F0E0000000000000000000000000000000000020
:10F0F0000000000000000000000000000000000010
:10F1000000000000000000000000000000000000FF
:10F1100000000000000000000000000000000000EF
:10F1200000000000000000000000000000000000DF
:10F1300000000000000000000000000000000000CF
:10F1400000000000000000000000000000000000BF
:10F1500000000000000000000000000000000000AF
:10F16000000000000000000000000000000000009F
:10F17000000000000000000000000000000000008F
:10F18000000000000000000000000000000000007F
:10F19000000000000000000000000000000000006F
:10F1A000000000000000000000000000000000005F
:10F1B000000000000000000000000000000000004F
:10F1C000000000000000000000000000000000003F
:10F1D000000000000000000000000000000000002F
:10F1E000000000000000000000000000000000001F
:10F1F000000000000000000000000000000000000F
:10F2000010B5054C237833B9044B13B10448AFF360
:10F2100000800123237010BD382900200000000069
:10F22000F8E7050008B5034B1BB103490348AFF3EA
:10F23000008008BD000000003C290020F8E7050020
:10F24000154B002B08BF134B9D46A3F5803A0021B8
:10F250008B460F461348144A121A2CF044F90F4BF0
:10F26000002B00D098470E4B002B00D09847002071
:10F27000002104000D000D48002802D00C482BF09E
:10F280006AFE2BF037FF2000290005F0A1FB2BF0D0
:10F290006FFE00BF0000080080FF0020000000009B
:10F2A000000000003829002050F9002057AF04006A
:10F2B0000000000002230373012070470223037142
:10F2C00001207047032303737047032303717047C2
:10F2D000022303730120704702230371012070474A
:10F2E00003230373704703230371704770B5064609
:10F2F0000D461446306C036821469B69984718B147
:10F30000B4F80B30AB42F5D170BD022380F8303039
:10F3100001207047022303710120704770470323C7
:10F3200080F8303070470323037170470223037164
:10F330000120704703230373704703230371704751
:10F3400002230373012070470223037101207047D9
:10F35000032303737047032303717047022303736E
:10F3600001207047022303710120704703230373B8
:10F37000704703230371704740687047032303738A
:10F3800070470323037170470323037170470223FF
:10F39000037101207047002303717047012303713B
:10F3A000184670470323037170470223037101203D
:10F3B00070470323037370470323037170470000F2
:10F3C000044B054A1A60054B1860022303730120A1
:10F3D000704700BF90290020AFFD01008C2900205C
:10F3E000A0F10800FFF7ECBFC18B38B54FF6FF75F1
:10F3F000A942044602D021F071FFE5834FF0A043FB
:10F400004FF00042C3F80C250023237738BD0000DD
:10F4100010B507490446012021F038FC0023C4E957
:10F420001533C4E91733C4E91933E36610BD00BFCF
:10F4300032EC0400A0F12400FFF7EABFF0B4D0F8EA
:10F440007864D0F87C44891B8C42154625D90A0182
:10F45000B2FBF4F254432409091B85B900EB4200C6
:10F46000B0F88034C3F30E038B4216D14FF6FF730E
:10F47000A0F8803413490120F0BC21F007BC2D789E
:10F48000042D0AD100EB42004FF6FF77B0F880540C
:10F49000BD4204D00BB12B0403D5F0BC70478DB234
:10F4A00023B16FEA41416FEA51418DB23444C5F353
:10F4B0000E03A0F88054234403490120F0BC21F03E
:10F4C000E5BB00BF93E40400B3E404000123002281
:10F4D000FFF7B4BF0123FFF7B1BF0023FFF7AEBFB3
:10F4E00007B5174B18689B88ADF8043002230B70E2
:10F4F00001234B7006238B700723CB70FF230B7106
:10F5000000904A1D00231DF80300D0540133062B40
:10F51000F9D11123CB720B4807230B7301F10D02B4
:10F520000023195CD1540133102BFAD11D22064956
:10F53000012021F0ABFB1D2003B05DF804FB00BFF0
:10F54000D4D7040000DA040061E9040010B590F893
:10F5500028200446D2B9016A21F024FF4FF6FF7338
:10F560009842E08308D10120154921F08FFB204605
:10F57000BDE81040FFF738BF4FF0A0434FF0004206
:10F58000C3F80825012384F828300DE04FF0A0438C
:10F590004FF00042C3F80C25416A31B94FF6FF70B5
:10F5A000E083C3F80C25217710BD002221F0FAFE7C
:10F5B0004FF6FF739842E083D5D00023E3E700BF06
:10F5C000B3E70400FFF7C2BF70B5C56C0446CDB900
:10F5D000124B9E8F731E9BB24FF6FD7293421AD848
:10F5E0000F49012021F052FB626A01234FF47A7126
:10F5F000E3647143D37720462A4621F0D3FEA4F872
:10F60000480070BD012DFCD10649284621F03EFB83
:10F61000636A0022DA770223E364F2E7A8E70020B6
:10F62000A3E30400CDE304001FB5047B022C05D046
:10F6300040F2F7121EF038F804B010BDCA88B2F5D7
:10F64000844FF9D1037F8DF80430044B029301AB52
:10F650000393C82202AB1DF06FFFEDE701420300E8
:10F66000F0B5164D164C2A78237885B006460F461D
:10F670000120144921F00AFB2D78C5B1124901205F
:10F6800021F004FB012322788DF804208DF8053049
:10F690000BB18DF806500D4B029301AB0393C822BA
:10F6A00002AB394630461DF047FF05B0F0BD0849B2
:10F6B000012021F0EBFA2B46E5E700BFF8EB002034
:10F6C00030E7002026EA04003CEA040001090300B8
:10F6D00049EA040010B5044A0446012121F0F6FE6F
:10F6E0000023237310BD00BF4EDA0400A0F1080010
:10F6F000FFF7F0BF10B5044A0446032121F0E6FEEF
:10F700000023237310BD00BF48DA0400A0F10800F5
:10F71000FFF7F0BF10B5054A04460721243021F059
:10F72000D5FE002384F8303010BD00BF18DA040085
:10F73000A0F12C00FFF7EEBF10B5044A04460421E7
:10F7400021F0C4FE0023237310BD00BF40DA040083
:10F75000A0F10800FFF7F0BF10B5044A04460121EC
:10F7600021F0B4FE0023237310BD00BF3ADA040079
:10F77000A0F10800FFF7F0BF38B5064B064A002499
:10F780001C60064B05461C600A2121F09FFE2C736D
:10F7900038BD00BF7C29002026DA04008029002023
:10F7A000A0F10800FFF7E8BF10B5054A01210446A3
:10F7B00021F0AAFEC82806BF01202073002010BD3A
:10F7C0004EDA0400A0F10800FFF7EEBF10B5054ABD
:10F7D0000321044621F098FEC82806BF01202073AB
:10F7E000002010BD48DA0400A0F10800FFF7EEBFCA
:10F7F00038B50024C0E91544C0E91744C0E91944EC
:10F80000C4660546074A0721243021F07DFEC8283A
:10F8100006D1012485F830400349204621F036FA0C
:10F82000204638BD18DA040094EA0400A0F12C0048
:10F83000FFF7DEBF10B5054A0421044621F064FE3F
:10F84000C82806BF01202073002010BD40DA040044
:10F85000A0F10800FFF7EEBF10B5054A02210446EB
:10F8600021F052FEC82806BF01202073002010BDE1
:10F870003CDA0400A0F10800FFF7EEBF10B5054A1E
:10F880000121044621F040FEC82806BF0120207354
:10F89000002010BD3ADA0400A0F10800FFF7EEBF27
:10F8A00038B50E4A0A21054621F02EFEC82813D18C
:10F8B0000B4B05F11C021A600A4B012405F12002D2
:10F8C0001A602C7300224FF4FA71284621F06AFD69
:10F8D000A5F84800204638BD0020FCE726DA0400E1
:10F8E0007C29002080290020A0F10800FFF7D8BF64
:10F8F00010B5064A0221044621F006FEC8280CBFB6
:10F90000012305232373012010BD00BF84EA0400F6
:10F91000A0F10800FFF7ECBF10B5034B03600446ED
:10F9200024F03CFB204610BDCCF0040010B504468A
:10F93000FFF7F2FF20462AF005FE204610BD00002A
:10F9400010B5074B03F1080254330446026040F837
:10F95000083F22F0DFF8204624F020FB204610BDAF
:10F96000E0EE0400A0F10800FFF7EABF10B504467E
:10F97000FFF7E6FF20462AF0E5FD204610BDA0F186
:10F980000800FFF7F3BF000010B5074B03F10802B2
:10F9900054330446026040F8083F22F0BBF820468A
:10F9A00024F0FCFA204610BDE8EC0400A0F10800A9
:10F9B000FFF7EABF10B50446FFF7E6FF20462AF03E
:10F9C000C1FD204610BDA0F10800FFF7F3BF000005
:10F9D00010B5074B03F1080254330446026040F8A7
:10F9E000083F22F097F8204624F0D8FA204610BDB0
:10F9F00090EF0400A0F10800FFF7EABF10B504463D
:10FA0000FFF7E6FF20462AF09DFD204610BDA0F13D
:10FA10000800FFF7F3BF000010B5074B03F1080221
:10FA200054330446026040F8083F22F073F8204641
:10FA300024F0B4FA204610BD54ED0400A0F10800F3
:10FA4000FFF7EABF10B50446FFF7E6FF20462AF0AD
:10FA500079FD204610BDA0F10800FFF7F3BF0000BC
:10FA600010B5034B0360044622F054F8204610BD45
:10FA700008F1040010B50446FFF7F2FF20462AF013
:10FA800061FD204610BD0068083021F0CDBD0000AA
:10FA9000037810B504461BB92E2102481DF030FB37
:10FAA000201D10BD74E4040008B502230373054B48
:10FAB0001B6843621BB9532103481DF021FB012041
:10FAC00008BD00BF7829002074E40400A0F10800FC
:10FAD000FFF7EABF40F27F1101481DF011BB00BFE4
:10FAE00013EA040070B50569044621F02BF82B6871
:10FAF0009B68834204D04FF4817108481DF000FBDD
:10FB0000E5686168A3686A10EC0701EB020048BF72
:10FB10008A58BDE8704048BFD35818473EE40400F7
:10FB200070B50569044621F00DF82B689B68834287
:10FB300004D04FF4817108481DF0E2FAE56861686D
:10FB4000A3686A10EC0701EB020048BF8A58BDE8C1
:10FB5000704048BFD358184774E4040070B5056975
:10FB6000044620F0EFFF2B689B68834204D04FF4DB
:10FB7000817108481DF0C4FAE5686168A3686A10DD
:10FB8000EC0701EB020048BF8A58BDE8704048BF4F
:10FB9000D35818474AE4040010B5044621F0A3FFE7
:10FBA000204610BD10B5044621F09DFF204610BD33
:10FBB00010B5044621F097FF204610BD37B5044626
:10FBC000006C1CF06DFE94F85230B0F5806FACBF45
:10FBD00000250125AB4207D002AA054902F8015DC4
:10FBE00004F1240020F0EAF884F8525003B030BD4C
:10FBF00001340100CA8843F203439A4200F1240011
:10FC00000CBF40F2F51240F2F7121DF0C5BDA0F195
:10FC10002400FFF7EFBFF8B5CB88B3F5505F04467B
:10FC20000E4600F1240512D1006C0368DB6B984787
:10FC300000280CBF4FF4FA77C8272046FFF7BEFF15
:10FC40003A4631462846BDE8F8401DF0A5BD40F2D1
:10FC5000F712F7E7A0F12400FFF7DDBF036B0133D4
:10FC60000363C8221DF098BD4FF4C8721DF094BD07
:10FC700010B586B0044606A8002320F8123D20F0F7
:10FC80002FFFBDF806300A494FF47A725A43D31752
:10FC9000E1FB0023CDE90223064B049302AB05935D
:10FCA00004AA054B0549204620F03EF806B010BDD9
:10FCB00040420F0008000300B8E8002000070100E0
:10FCC00007B5027B022A06D040F2F7121DF0ECFCC9
:10FCD00003B05DF804FBCB8843F2015293420DD090
:10FCE00043F202529342F3D1084B1B78C3F38003D3
:10FCF00002AA02F8013D1EF0E5F8E9E7034B1B7884
:10FD000083F01003C3F30013F2E700BFA8E700205D
:10FD10000B4B10B503F10802026003F15402743377
:10FD20000446826040F81C3F21F006FA04F1080006
:10FD300021F0F0FE204624F031F9204610BD00BF2E
:10FD400030EE0400A0F11C00FFF7E2BFA0F10800B4
:10FD5000FFF7DEBF10B50446FFF7DAFF20462AF0B2
:10FD6000F1FB204610BDA0F10800FFF7F3BFA0F1A2
:10FD70001C00FFF7EFBF000010B5034B0360044603
:10FD800021F0DAF9204610BDC8ED0400A0F12400EE
:10FD9000FFF7F2BF10B50446FFF7EEFF20462AF04A
:10FDA000D1FB204610BDA0F12400FFF7F3BF38B10E
:10FDB0000A460023C0E908230121C06A20F052BF8F
:10FDC00070470068103004F0D2BD70B50546084693
:10FDD0000E462BF089FD202828BF2020044602462D
:10FDE000314628462BF05BFB00232B5570BD0000ED
:10FDF00038B5037B022B04460D4605D040F2F712BE
:10FE0000BDE838401DF050BCCB8843F201518B4215
:10FE100016D043F202518B4220D1D368104A197890
:10FE20001378C3F38000884206D061F382036FF336
:10FE3000C303137015F034F8C82229462046DFE7C3
:10FE40000749D2680B781278C3F300108242F3D1CD
:10FE500082F0010262F304130B70EBE738BD00BFC0
:10FE6000A8E70020F0B50446ADB03E480D460CF0C2
:10FE700031FF237B022B06D040F2F71229462046A1
:10FE80001DF08AFC42E0EB88A3F56063032B65D884
:10FE9000DFE803F002385F410023059306930793E0
:10FEA000089309930A930B930C930D93012100235C
:10FEB0000EA8ADF8043002930BF018FE002827D1ED
:10FEC000209B0593219B0693229B0793239B0893DA
:10FED000249B0993259B0A93269B0B93279B0C93AA
:10FEE000289B0D930323ADF8043005AB02931E4B02
:10FEF000039301AB049303ABC822294620461DF0AF
:10FF00001BFB03E0294620461EF02CFB2DB0F0BD64
:10FF10004FF4FA72B2E7154B59680022C9431346F1
:10FF2000012000FA02F60E42D7B205D02CAE1E44D4
:10FF3000013306F8787CDBB20132202AF1D1ADF82A
:10FF40000C300EAB04930A4B059303AB069305AB41
:10FF5000D2E72946204620F005F9D7E74FF4CA72C8
:10FF60008CE700BFFDE70400010E0300A8E70020B6
:10FF7000040E030030B5C1B004460D466A464FF486
:10FF8000807100680AF0F0FF4FF4807269462846DD
:10FF900011F0EAFB236803F58073236041B030BDA4
:10FFA00037B502AC002344F8043D05464FF4E82180
:10FFB0002046FFF7DFFF17492046FFF7DBFF164912
:10FFC0002046FFF7D7FF15492046FFF7D3FF144916
:10FFD0002046FFF7CFFF134925F480738B4205D1EC
:10FFE00011492046FFF7C6FF03B030BDB5F5E92F34
:10FFF000F6D02046FFF7BEFF0C492046FFF7BAFFB8
:020000040002F8
:100000004FF4E9212046FFF7B5FF074B9D42EBD0A7
:10001000E6E700BF00440700004507000046070070
:10002000004707000042070000490700004307009F
:1000300010B50349044604F051FE0023237310BD9C
:100040003CDA0400A0F10800FFF7F2BF08B504494C
:1000500004F044FE034A00231360034A136008BD02
:1000600084EA0400902900208C290020A0F10800D7
:10007000FFF7ECBF2DE9F0434B68264A43F00F032E
:1000800093428BB005460C4606D002F5803293426F
:1000900035D00BB0BDE8F0834FF000080AA8002768
:1000A00020F8227D20F01CFDBDF806204FF47A7662
:1000B0000023E6FB00231946A2FB062306FB0133BF
:1000C0000DF1080904AEB8F1000F1BD0CDE90423EF
:1000D0008DF8207020F0EEFC4FF48063079301232D
:1000E0008DF82030142309930B4B0690CDE902368E
:1000F0004B46C822214628461DF01EFAC9E74FF09C
:100100000108CBE7CDE90223044BCDE9043933469E
:10011000EFE700BF0F00000700070300080003001F
:100120002DE9F8431049064621F0A6F9C82818D051
:1001300000240C27A04696F82020E3B29A4210D95A
:10014000F2697B43D5180AD0686840B1297A31B189
:100150000168D1F80490D15CC84785F80880013463
:10016000E9E7BDE8F88300BF1F000045FFF7D8BFEF
:10017000FFF7D6BF38B504460D4601200B4920F0E5
:1001800085FD237B022B07D040F2F712294620463B
:10019000BDE838401DF088BAEB88B3F58A4F02D12C
:1001A0002046FFF7BDFFC822F0E700BFACE5040022
:1001B00070B504460C490D4D0120002620F066FD67
:1001C000618E84F83160204620F032FF286880F884
:1001D00035600CF0C3F9E36A2BB92868BDE87040BC
:1001E0001C300CF089B970BD62E70400942900202E
:1001F000A0F12400FFF7DCBF4B68234A43F00F0354
:10020000934273B505460E4629D00CD8A2F50032AC
:10021000934221D002F58032934223D040F2F5126E
:100220003146284623E0194A93420AD002F580322B
:100230009342F3D124F0C6FC044624F0C6FC201AF5
:1002400001E024F0BFFC02ABC82243F8040D3146A4
:1002500028461DF0A1FE15E024F0B7FCF3E724F0DA
:10026000B6FCF0E790F909305A1C03D1CC221DF0FE
:1002700093FA07E0003302AA18BF012302F8043DF5
:100280001DF020FE02B070BD1F0008081F00090805
:1002900070B50D4C236823F00102054622600E461E
:1002A00049B923F0030323606B6863B131462846E4
:1002B000BDE8704018470549032024F055F923682C
:1002C00043F00203EFE770BDA42900202BF10400E6
:1002D000CA8843F206739A4270B504460D4604D1AB
:1002E000466A14F029FC0023337129462046C822AF
:1002F000BDE870401DF0D8B92DE9F04700F1380392
:10030000A6B004460021BFF35B8F53E8002F43E8FB
:1003100000100028F9D1BFF35B8F1AB14C490120BE
:1003200020F0B4FCDFF848914FF0470804F13006A4
:10033000256B636B9D4200F08780E16B472208FBD1
:10034000051114A82BF0ABF8E26ABFF35B8F691CB0
:10035000B1FBF2F302FB131356E8002FAA4203D1BC
:1003600046E800310029F7D1BFF35B8FE0D19DF85B
:10037000512004929DF8522003929DF8532002923E
:100380009DF85420019209AE9DF8552000929DF8E9
:1003900056304A46122130462BF0C4F99DF8505091
:1003A0008DB3012DC2D19DF857209DF95830009290
:1003B0000DF15907284601973246264920F066FC80
:1003C00000238DF8483013939DF857308DF83C305A
:1003D0009DF858308DF83D309DF89630ADF840309E
:1003E00038460DF177030E9611932BF07DFA10B17C
:1003F0008DF848501397184B07930EAB089307AA34
:10040000164B17491CE09DF85770BDF859A01549C7
:10041000009653463A46012020F038FC01238DF81F
:100420004430114B07930EAB089310490B4B8DF8DA
:100430003C5010950E96CDF848A08DF84C7007AA48
:1004400020461FF071FC71E726B0BDE8F08700BFC1
:1004500044E00400BDE0040009370300B8E80020D0
:100460000637010068E00400073703000437010085
:1004700012E104002DE9F0411D4694B090462A791E
:100480005B79009204460F460A460120104920F08D
:10049000FDFB0026062229460DF109008DF80860B3
:1004A0008DF80F70ADF811802AF0F9FFA06A23F0E3
:1004B0007FFE02A904F12C001DF0EEFF3146606CB6
:1004C00020F0D0FBA06A23F0AFFE14B0BDE8F081AD
:1004D00058E30400A0F11C00FFF7CCBFF0B593B0C7
:1004E0001D469DF8686001231746044606220DEB61
:1004F00003008DF800302AF0D2FF324619990DF131
:1005000027002AF0CCFF9DF860308DF846608DF80A
:1005100007308DF80870B5B11E2229460DF109008B
:100520002BF010FAA06A23F043FE694604F12C0078
:100530001DF0B2FF0021606C20F094FBA06A23F054
:1005400073FE13B0F0BD8DF80950EBE7A0F1200069
:10055000FFF7C4BF2DE9D04191B003A80F46144660
:100560001DF0B4F920B91322174903A82BF0EAF9BA
:1005700008AE164B0093164A03AB1D2130462BF0F4
:10058000D1F8023C804632461249012020F07EFB21
:10059000444528BF44463A46631C02F8023B0923FF
:1005A0007B70E4B200239C4203DDF15CD154013343
:1005B000F9E7023422460849012020F067FB204673
:1005C00011B0BDE8D08100BF7CE904005B290020A8
:1005D0008EE9040096E90400B4E904001DF02CBF84
:1005E000A0F10800FFF7FABF036B013B70B50446AA
:1005F0000E46036353B9818D4FF6FF75A94203D0B0
:10060000083020F015FDA585012500E00025C82251
:10061000314620461DF0C0F81DB1BDE870401DF008
:100620000BBF70BDF7B50F461849044620F024FFF4
:10063000C82826D1A68D4FF6FF739E4223D102AA69
:10064000012302F8013D4FF4853120461FF0B6FB2F
:10065000002242F2107104F1080020F005FDA0858F
:1006600020F028FAA58D6063AB1B5D425D41C82276
:10067000394620461DF090F80DB11DF0DDFE03B0A7
:10068000F0BD0125F3E70025F1E700BF1F00000AD8
:1006900073B5037B022B04460E4605D040F2F712D9
:1006A0001DF002F802B070BDCB88B3F5844FF9D1CC
:1006B00001A9684601921BF005F99DF80050022D32
:1006C00004D94FF4C87231462046E9E7237FAB4294
:1006D00005D0012D09D004D3022D1AD02577C822C8
:1006E000F1E72046FEF780FEF8E7E18B4FF6FF7357
:1006F000994202D0204620F0F1FD4FF4B4633C2132
:10070000C4E90813002384F828302046FEF71EFFB2
:10071000E4E7E18B4FF6FF73994202D0204620F0C8
:10072000DDFDC8220023C4E90823ECE7F7B506463F
:100730000F46684601A901921BF0C4F89DF80040DD
:100740000123A3404FF63E42134207D14FF4C87233
:10075000394630461DF020F803B0F0BD7CB11B4D8A
:100760002B78EBB19C420AD1032C25D140F2F51233
:10077000EEE7174B1C701FE00BF036F91CE040F25F
:1007800099142246394630461DF006F8CA2CE3D1AA
:10079000104B1149012206F1080023F0CBFADBE7E8
:1007A000032CE3D0012C2C70E3D0E5D3A4F10C038F
:1007B000022BE1D814F028FA2B78A34203D075213C
:1007C00006481CF09DFCCA24DBE700BFF8EB0020C4
:1007D000A8290020C8E800201F00000A6CEA0400D5
:1007E0001FB504460A22134968462AF058FE6A4695
:1007F000052104F1140020F069FE4FF4106104F1AA
:10080000200021F03DF9C82803D031210A4804F026
:1008100021FA0A4A012104F1840020F057FEC82879
:1008200003D03221064804F015FA0023237104B0E6
:1008300010BD00BF88EA04006CEA040092EA0400DC
:10084000E5C905001FB504460A22164968462AF084
:1008500026FE6A46052104F1140020F055FEC82842
:1008600004D000200423237104B010BD4FF41061A4
:1008700004F1200021F01BF9C828F2D14FF42061C7
:1008800004F14C0021F013F9C828EAD1064A0121ED
:1008900004F1840020F038FEC828E2D1012003468C
:1008A000E1E700BF88EA040092EA040000000000CB
:1008B000F8B54B680D46204943F00F038B420446C0
:1008C0002ED102F1080021F0A1F919A3D3E90023E8
:1008D00082428B4107DB4FF4C87229462046BDE8AF
:1008E000F8401CF0E1BE4FF47A7200232CF074FD46
:1008F00002460B4606460F460120104920F0C6F975
:100900000F4BC3E90067D3E90023134301D020F064
:10091000ADF820F0DCF80021C4E90801C822DCE7CA
:100920004FF485710748BDE8F8401CF0E9BB00BFF3
:10093000FF9FBE1DFD4405000F00000701EA0400F3
:10094000702900204AE40400F0B5044687B0254829
:100950000D4617460CF0BEF9237B022B06D040F261
:10096000F712294620461CF09FFE22E0EB8843F652
:100970000122934206D043F6022293421BD04FF449
:10098000CA72EEE7237F8DF8003001238DF8013025
:10099000ADF80830144B0493002202AB05938DF898
:1009A0000220CDF80CD004ABC822294620461CF00A
:1009B000C3FD07B0F0BD06AE46F8087D304612F024
:1009C00033F80028DBD1237F8DF8043001238DF824
:1009D0000530064B049301AB05938DF806003346B2
:1009E000E2E700BFF8E30400023A0300013A030023
:1009F00073B504461B480D4616460CF06BF9237B75
:100A0000022B07D040F2F712294620461CF04CFE7C
:100A100002B070BDEB88B3F5685F06D043F60222E2
:100A200093420ED04FF4CA72EEE7F3681B784FF092
:100A3000A0424FF000418BB9C2F80C152377C822B1
:100A4000E2E702A840F8046D11F0EEFF0028E9D1BA
:100A500006F1100020F0E8FD0378E8E7C2F8081579
:100A6000ECE700BF1BE404002DE9F041044688B028
:100A70000D4601202449164620F008F9237B022B5D
:100A800002D040F2F71217E0EB88B3F58A4FF8D1A5
:100A900008AF47F8106D384611F0C6FF08A95FFA95
:100AA00080F801F8198D20460BF0C0FB064608B10E
:100AB000406830B940F2F512294620461CF0F4FD9A
:100AC0001FE0337A43B9036841461B689847307288
:100AD00010B94FF4FA72EFE71FF0ECFF0490706862
:100AE0000023CDE9053803684146DB689847074B8A
:100AF0000790CDE90237C82202AB294620461CF0F8
:100B00001BFD08B0BDE8F08161E50400014503006C
:100B10002DE9F34104460D4601201D49174620F0FA
:100B2000B5F8237B022B02D040F2F71216E0EB88D7
:100B3000B3F58A4FF8D102AE46F8047D304611F085
:100B400073FF02A9C7B201F8057D20460BF06EFBCA
:100B5000804608B1406830B940F2F5122946204677
:100B60001CF0A2FD10E0036839469B689847D8F84E
:100B7000040003683946DB68984733460190C82271
:100B8000294620461DF008FA02B0BDE8F08100BFFA
:100B900086E504000D4B03F1080210B5026003F175
:100BA0007402B03304464262C362483004F09AF8DB
:100BB00004F12C0020F0AEFF04F1240023F0EEF944
:100BC000204620F0B9FA204610BD00BFFCEF04001B
:100BD000A0F12C00FFF7DEBFA0F12400FFF7DABF81
:100BE00010B50446FFF7D6FF204629F0ABFC20469F
:100BF00010BDA0F12400FFF7F3BFA0F12C00FFF718
:100C0000EFBF00000F4B03F1540210B50360826088
:100C100003F1740280330446C2610362806A23F0E8
:100C20008FFA04F1400004F05DF8E06B08B104F0C5
:100C3000E1F804F1080020F06DFF204623F0AEF942
:100C4000204610BD64EC0400A0F10800FFF7DABFF5
:100C500010B50446FFF7D6FF204629F073FC204666
:100C600010BDA0F10800FFF7F3BF00002DE9FF471A
:100C70000E46054627490120174620F007F8F3885D
:100C800043F2047293423FD043F2067293423DD145
:100C900004AC44F8047D20461AF0F4FE10B120465E
:100CA000FEF7F1FE20461AF0EDFE6F6A28B32046EB
:100CB000FEF7E9FE90F800802046FEF7E4FEB0F86B
:100CC00006902046FEF7DFFEB0F804A02046FEF7AF
:100CD000DAFE438800934A4653464146384613F0AD
:100CE0002DFF00280CBF4FF4FA72C8223146284667
:100CF0001CF0DAFC04B0BDE8F08700904FF4FA7302
:100D000042F210720121E9E7C822EFE740F2F71240
:100D1000ECE700BF2CE0040073B504460D4601204B
:100D2000174916461FF0B2FF237B022B08D040F272
:100D3000F7122946204602B0BDE870401CF0B4BC52
:100D4000EA8843F201739A4216D102A840F8046D72
:100D50001AF098FE50B106F1080020F065FC094930
:100D600001201FF093FF40F2F512E2E7064B1868EE
:100D700013F0D4FEC822DCE74FF4CA72D9E700BFF3
:100D8000E9E204000DE30400782900204B1C30B593
:100D900022D0D0F80A305D1C1ED0D0F80E20541C92
:100DA0001AD0934208D28B4216D88A428CBF0021B7
:100DB000012181F0010030BD446904F58075A9422C
:100DC0000AD380690444A14206D28A4206D88B42E3
:100DD00094BF00210121ECE70121EAE70021E8E7C7
:100DE00070B5034609B3447800220F3C0846451A03
:100DF000AC4203D910F8015B6A40F8E7997B914255
:100E000013D09A73002003F10F061C46002114F83A
:100E1000015B85EA0102A642D2B208D18D421FBF12
:100E2000597B4A405A73002070BD0120EBE7114600
:100E3000EDE70000034B1B681BB10021D86C1FF0CD
:100E400011BF704798290020037810B504461BB9DC
:100E50002E2102481CF054F9201D10BD5BE4040053
:100E60002DE9F0470646CEB002F108000F4620F00B
:100E7000DBFB90F800808DF87C800023ADF880309B
:100E80002193B8F1000F04D08388ADF880308368D7
:100E90002193027B8DF888200024239424942594A8
:100EA0002AB103692393436924938369259390F8B6
:100EB0001CA08DF898A00023ADF89C302893BAF1BF
:100EC000000F04D0038CADF89C30436A289390F84F
:100ED00028908DF8A4900023ADF8A8302B93B9F199
:100EE000000F04D0838DADF8A830036B2B9390F8DE
:100EF00034302D942E942F948DF8B0302BB1816B1B
:100F00002D91C16B2E91016C2F91B8F1000F09D07A
:100F100052B94FF4FA72394630461CF03DFC4EB0DF
:100F2000BDE8F087002AF4D1B9F1000F00F0488144
:100F3000002BEED0B8F1000F00F04681A3481DF061
:100F4000F1FA0546BAF1000F05D04FF4E9201DF083
:100F5000E9FA0540EDB2B9F1000F04D09C481DF04C
:100F6000E1FA0540EDB2002DD3D0B8F1000F68D002
:100F70001FA8FFF769FF0388ADF81C30436808938A
:100F80009DF888301BB92E2192481CF0B9F8002139
:100F900007A8DDF88C90DDF89080259D20F000FFFB
:100FA00000210368109307A820F0FAFE002143688F
:100FB000119307A820F0F4FE01218368129307A87B
:100FC00020F0EEFE01210368139307A820F0E8FE4D
:100FD00001214368149307A820F0E2FE02218368F0
:100FE000159307A820F0DCFE02210368169307A8DA
:100FF00020F0D6FE02214368179307A820F0D0FE08
:10100000836818934FF07E531E937348734BCDF84B
:101010006490CDE93003CDF868801B951C941D9435
:101020001FF055FD4FF48173329010A930A833930F
:101030001CF0BEFF034620B1694A012100201BF0CD
:1010400003FC9DF89830002B52D026A8FFF7FCFE39
:101050000388ADF80C3000214368049303A820F006
:101060009FFE00210368079303A820F099FE00214A
:101070004368089303A820F093FE01218368099335
:1010800003A820F08DFE012103680A9303A820F035
:1010900087FE012143680B9303A820F081FE022103
:1010A00083680C9303A820F07BFE022103680D9354
:1010B00003A820F075FE022143680E9303A820F0D8
:1010C0006FFE836847490F93474BCDE930131FF0FC
:1010D000FEFC4FF48473329007A930A833931CF0C0
:1010E00067FF034620B1414A012100201BF0ACFB01
:1010F0009DF8A430002B61D029A8FFF7A5FE038836
:10110000ADF80430436802939DF8B0301BB92E212E
:1011100030481BF0F5FF002101A8DDF8B4802E9DBA
:101120002F9C20F03DFE00210368429301A820F08F
:1011300037FE00214368439301A820F031FE0121CE
:101140008368449301A820F02BFE01210368459396
:1011500001A820F025FE01214368469301A820F054
:101160001FFE02218368479301A820F019FE022187
:101170000368489301A820F013FE022143684993B5
:1011800001A820F00DFE8368194A4A93194BCDF847
:101190002C81CDE903234C954D941FF098FC40F22F
:1011A0000313059030A903A806931CF001FF034622
:1011B00020B1114A012100201BF046FBC922AAE6FA
:1011C000002B3FF4B7AEA4E60125BBE600420700C2
:1011D000004307005BE404004143434302003C003A
:1011E000C5E804004759524F01002400F5E8040007
:1011F0004D41474E0100780021E9040010B500215F
:1012000004461CF061FA0022064904F1080020F0AF
:10121000CDFC054B03F1080254332260A360204645
:1012200010BD00BF50E9040090EF0400F0B54FF08E
:10123000FF350024056100F58E66024623464FF413
:10124000847707FB04010134042C26F8023B02F5E5
:10125000847202F8B73C02F8B63C81F8573081F846
:10126000583081F8593081F85A30956482F84C3002
:10127000E7D100F5906300F594624FF6FF7123F813
:10128000021B9A42FBD1FF23C360F0BD38B500F5C5
:101290008E6204464FF0FF33002032F8025B002DCF
:1012A00018BF03468D4216D001300428F5D1022B19
:1012B00006DD0C4876211BF023FF04F1500009E005
:1012C00003F239224FF4847003FB0000503024F8FD
:1012D0001210204438BD4FF4847303FB004050309B
:1012E000F8E700BF83E404002DE9F04700F58E66BF
:1012F0001746054689461FFA81F800F58F62334686
:1013000033F8021B88454FD09342F9D14A462B4906
:101310000120BDE8F0471FF0B9BCE7B1DFF8A8A095
:10132000002736F8022B8AB14A450FD0EB1993F803
:10133000541159B15146012093F851301FF0A6FCC9
:10134000002236F8021C2846FFF7CEFF07F5847707
:10135000B7F5846FE5D16868036804F11002DE68B0
:10136000214605F13403B047A0B1002340F60472D2
:101370006372A3722280A4F80780A3706868036870
:101380001B689847A4F80B0068680368BDE8F0473D
:101390001B6918470A4901201FF078FC40F223110D
:1013A00008481BF0ADFEEFE741462846FFF76EFF09
:1013B00043780F2B0446B0D8BDE8F08742E504001F
:1013C00011E5040083E40400D4E40400CB88B3F501
:1013D000505F2DE9F7430546884600F1240724D1E4
:1013E000154901201FF052FC6C6C04F58E6604F563
:1013F0008F6936F8021B19B101222046FFF774FFEE
:101400004E45F6D1606803681B699847286C0368ED
:101410005B68984702ABC92243F8040D4146384641
:101420001CF0BAFD03B0BDE8F08340F2F712384675
:101430001CF0B2F9F6E700BF13EC0400A0F12400A1
:10144000FFF7C4BF0B4B1B68DB6A834210B50C4629
:101450000BD10A46012008491FF018FC4FF0A043A9
:101460004FF4800214B9C3F80C2510BDC3F8082549
:10147000FBE700BF8829002031E7040070B5154C58
:101480002368D96A93F83020814208BF013AD2B26A
:10149000064683F83020104901201FF0F7FB25682D
:1014A000EB6AB34215D195F8306096B90B4901202B
:1014B0001FF0ECFB4FF0A0434FF48002C3F80C2563
:1014C00095F8313013B130460CF03AF92368002218
:1014D000DA6270BD88290020ACE60400E3E604006F
:1014E00038B50F4C2368DB6A05462BB90D4901203E
:1014F0001FF0CCFB2368DD622368D96A93F83020A3
:10150000A94208BF0132D2B283F830200649012037
:101510001FF0BCFB2368D86A431B5842584138BDB2
:101520008829002085E60400ACE60400F0B587B009
:10153000002316460D468DF80030CDE904330446ED
:101540001FF0B8FA0596394E3378CDE9020553BB42
:1015500001233370A37F5BB194F91D309D4207DCFA
:1015600094F83E3023B1694604F138000FF032FBA5
:10157000039B94F91C20934213DC94F83410E26A24
:10158000914212D394F83520013284F8352094F832
:101590003620934201DA84F836300021E06C1FF0E7
:1015A00061FB0023337007B0F0BD05982AF09CF969
:1015B000002194F83430D4F824C00F460C258B4217
:1015C00009DD05FB01C20131127AC2F306020132C4
:1015D0003A44D7B2F3E703EB43039B00029A4CF87B
:1015E00003200CEB0305049B039A6B606B7A62F398
:1015F00003036B722B7A60F306032B72236B57FA8B
:1016000080F083420ED9A06A059938442AF064F923
:101610002B7A6FF3C7132B7294F83430013384F8AC
:101620003430BAE72B7A43F08003F4E79C2900209A
:10163000064B0246186838B1017B022904D1C17FEC
:1016400011B10421FFF772BF704700BFA0E700206F
:101650002DE9F041214D06460F46042020499046D1
:101660002A6822F085FF3B4632461E49032022F0BD
:1016700089FF2C6814F004040BD01B49042022F0CD
:1016800073FF2B689B0707D51849032022F06CFFD6
:101690000A242046BDE8F0811549042022F064FFA9
:1016A0002B68144843F001032B60BAB2434631461D
:1016B00023F0C2FF044648B102460F49032022F03E
:1016C00057FF2B6823F001032B60E2E70B4904204E
:1016D00022F04AFF2B6843F00103F5E7A42900201C
:1016E00046F1040078F1040099F10400C3F104000C
:1016F000E5F10400182900200AF2040023F2040096
:101700002DE9F74315460F4600928046024699465A
:1017100004200B46ADB21949194E22F03DFFAB0033
:101720009BB23A461749042022F042FF336813F077
:10173000040406D09A0708D51349032022F014FFA9
:101740000A24204603B0BDE8F08343F00103336070
:10175000CDF800902B463A4641460C4823F026FF30
:10176000044628B102460A49032022F001FFE8E7B7
:10177000336843F001033360E3E700BF57F204002E
:10178000A42900209EF20400A8F2040018290020D9
:10179000CAF2040070B50028ACBF01254FF0FF3538
:1017A0000E1EB8BF6D4229F0F0FC0446304629F009
:1017B000ECFC012884BF04EB5004B4FBF0F404FB00
:1017C00005F070BD10B5012104461BF07DFF024BF2
:1017D0002360204610BD00BFCCF0040010B5064BBE
:1017E00003603C33044640F8083F1FF0A5FC204648
:1017F00022F0D4FB204610BD64D00500A0F1080003
:10180000FFF7ECBF10B50446FFF7E8FF204628F0CD
:1018100099FE204610BDA0F10800FFF7F3BF0000BD
:1018200010B5064B03603C33044640F8083F1FF0F8
:1018300083FC204622F0B2FB204610BDE4D0050018
:10184000A0F10800FFF7ECBF10B50446FFF7E8FF72
:10185000204628F077FE204610BDA0F10800FFF7D3
:10186000F3BF000010B5034B0360044622F096FB63
:10187000204610BD08D0050010B50446FFF7F2FF62
:10188000204628F05FFE204610BD0000084B10B532
:1018900003604C3304468360283003F023FA04F1DC
:1018A000080020F037F9204622F078FB204610BDD2
:1018B0009CCF0500A0F10800FFF7E8BF0F4B10B563
:1018C000044640F8C03B0FF067FD04F19000FFF7BD
:1018D000DDFF04F18400FEF71FF804F14C00FFF770
:1018E0007DFF04F12000FFF79BFF04F11400FFF7D8
:1018F000B9FF204620F00EF9204610BD44D0050067
:1019000010B50446FFF7DAFF204628F01BFE2046FC
:1019100010BD10B50446FFF7B9FF204628F012FEAF
:10192000204610BDA0F10800FFF7F3BFEFF30980D8
:10193000BFF36F8F144B1A681EF0100F08BF20ED15
:10194000108A20E9F04F10604DF8043D4FF0200060
:1019500080F31188BFF34F8FBFF36F8F1EF08AFFA4
:101960004FF0000080F3118808BC19680868B0E8DF
:10197000F04F1EF0100F08BFB0EC108A80F30988FA
:10198000BFF36F8F704700BFD0EA0020064B196885
:101990000868B0E8F04F80F30988BFF36F8F4FF00D
:1019A000000080F311887047D0EA002007480068E3
:1019B00080F3088862B661B6BFF34F8FBFF36F8FB5
:1019C0004FF4F07080F3118800DF00BF00F00100D9
:1019D000294B1B782DE9F74306460D46174623B9D8
:1019E0004FF4D17125481BF08BFB25B940F2A311B0
:1019F00022481BF085FB27B94FF4D2711F481BF01A
:101A00007FFB1F49D1E90031AA190B449A420DD836
:101A10001C4C206822F0CCFB1B4B93F80080A146A5
:101A2000B8F1000F04D0206822F0FEFB00241CE077
:101A300001200FF00DFE012401AB3A462946304645
:101A4000CDF804801BF0AEFB98B1019BED1A1E444B
:101A50001F4404F0010408B1002DEDD101200FF066
:101A60009DFDD9F8000022F0DFFB204603B0BDE861
:101A7000F0830446EDE700BF52EA002020F10400A5
:101A800048EA002054EA002051EA002010B504463C
:101A90000A4600684FF48071FFF79AFF236803F548
:101AA0008073236010BD000037B505464FF48051A8
:101AB00000201CF069FC20B94FF41B711C481BF07E
:101AC0001FFB02AC002344F8043D4FF4E8212046FC
:101AD000FFF7DCFF17492046FFF7D8FF16492046DD
:101AE000FFF7D4FF15492046FFF7D0FF14492046E1
:101AF000FFF7CCFF134925F480738B4205D11249BF
:101B00002046FFF7C3FF03B030BDB5F5E92FF6D08F
:101B10002046FFF7BBFF0D492046FFF7B7FF4FF404
:101B2000E9212046FFF7B2FF074B9D42EBD0E6E7E5
:101B30005BE404000044070000450700004607007E
:101B40000047070000420700004907000043070064
:101B500070B5044639480D4616460BF0BBF8237B9A
:101B6000022B07D040F2F71229462046BDE870400C
:101B70001BF012BEEB88A3F56063032B5BD8DFE894
:101B800003F0260206432E4B1B780A2B01D02D4A68
:101B9000EAE72D481CF0C6FC50B14FF4E9201CF0D8
:101BA000C1FC28B129481CF0BDFC08B1284ADBE77C
:101BB0002548FFF779FF1CF0C1FC20B12248FEF751
:101BC000EFF9244AD0E72048FEF7EAF9DFE71C4B9B
:101BD0001B780A2B02D04FF4FA72C5E71E481CF09E
:101BE000A1FC10B140F29912BEE71B48FFF75CFF61
:101BF0001CF0A4FC00280CBF4FF4FA76C826164847
:101C0000FEF7CEF93246AFE7F36818780C4B1B7835
:101C10000A2BE0D11F2802D94FF4C872A4E70F495C
:101C200001224B6882401342DCD113434B6013F016
:101C300037F9C82298E74FF4CA7295E795E804008F
:101C400030E70020F40101000042070000430700D4
:101C500099010100C800010000490700A8E7002021
:101C6000F0B5CB8843F20242934285B004460D465C
:101C700047D043F20442934210D043F201429342D0
:101C80004CD1006C1AF00CFE04AAB0F5806FACBF0A
:101C90000020012002F8080D29463AE090F8533060
:101CA00000F1240633B140F2A71230461BF074FD58
:101CB00005B0F0BDB0F850300133A0F85030FDF75A
:101CC0007DFF04A9B4F85030EF8821F80A3D02A83E
:101CD0001FF0A8FF144B02AA394630461EF024F824
:101CE000C822294630461BF057FDB4F85030012B6E
:101CF000DED102AA0D498DF8083030461EF05EF89C
:101D0000D6E7B0F8503004AA003318BF012302F818
:101D1000083D04F124001CF0D5F8C9E74FF44E71DA
:101D200003481BF0EDF9C3E7B8E8002002340100D6
:101D30003EE40400A0F12400FFF792BFF0B5CA888A
:101D400043F204439A4285B004460E4600F124054E
:101D500020D1B0F85030EBB1013BA0F85030FDF786
:101D60002DFF04A9B4F85030F78821F80A3D02A8E5
:101D70001FF058FF0B4B02AA394628461DF0D4FF2E
:101D8000B4F8503033B902AA07498DF80830284614
:101D90001EF014F8C822314628461BF0FDFC05B0A1
:101DA000F0BD00BFB8E8002002340100A0F124001B
:101DB000FFF7C4BF2DE9F04FADF51D7D00F1240301
:101DC0000393CB88A3F5505304468A461546062B49
:101DD00000F29583DFE813F0EA0288037B039303A4
:101DE0006C0325010700816DB0F85630B0F854201F
:101DF00000910120B3491EF049FF6B680D95002B3F
:101E000000F055812B89062B40F051814FF480332F
:101E100000250DA8589359958DF8685110F0E8FDEC
:101E2000D4F85890049000285FD10DF26916049BF5
:101E30002BB14B46A26DA44901201EF027FFB4F838
:101E40005430002B5FD130460822A04929F027FBEF
:101E500001230836A4F854300825B4F854704FF61E
:101E6000FF739F4268D07B1C012FA4F854304CD1E3
:101E70004722974B18A916A81DF0A0F9954916A856
:101E80001CF0D6FE1699324638460EF047FE054441
:101E90002B0A8DF862312B0C8DF86331B4F8543075
:101EA0008DF86151322B03D94FF6FF73A4F85430EB
:101EB000A36D1D44049BA5650BB1A945B7DAB4F821
:101EC000562003984FF6FF739A4207BF0023C4E9D8
:101ED000153358AB642204BF58ABC82251461CF0DE
:101EE00005FC0DF51D7DBDE8F08F0DA8FDF769FF20
:101EF000814506D00DA8FDF764FFC4E9155581465C
:101F000093E7049591E70025A7E7022F02D1324617
:101F10007149B9E7A7F10308704B53F838309F4275
:101F200003D027216E481BF0EBF86C4B03EBC8087D
:101F30003246D8F80410A7E7B4F85630BB42B7D001
:101F400003F133081FFA88F8A8F1330B0133BBF112
:101F50004B0FA4F8563062D8624B33F83B30434500
:101F600003D036215E481BF0CBF85F4B4FF48072F4
:101F700018A916A81DF022F95A4B03EBCB0B00272A
:101F8000BBF8023006937B1C0593069BFFB29F4271
:101F900013DA0023062211A90FA81DF00FF9DBF8B0
:101FA0000430524933F817200FA81CF071FE0F9926
:101FB00016A81CF03DFE059FE5E7BDF85E305F1EEC
:101FC000BFB2BB4229D9BDF85C10169A012902EBB9
:101FD000070002D97B1C99421AD8002303703246AD
:101FE0001699ADF85E7040460EF098FD05442B0A38
:101FF0008DF862312B0C8DF86331B4F856308DF8C2
:1020000061514B2B84BF4FF6FF73A4F856304FE756
:102010001A44C91B1CF0F4FDE1E70027DFE70020AC
:10202000E4E7D0E91723324901201EF02FFE6B6848
:102030000D95002B3BD02B89062B38D10DA810F025
:10204000F3FC0A900FA81AF0E9FBE36D276C01334B
:1020500004D140F2651127481BF052F8E36E059356
:102060000DA810F0C5FC0690A0B10DA8FDF7A9FEC3
:10207000059B834222D00DA8FDF7A3FE1E490590C3
:10208000024601201EF002FE0023C4E91733C4E912
:102090001933E366E26D3B6882BB5B690FA9384682
:1020A00098470790079B73BB4FF4CA7257E24FF4EF
:1020B000CA72514603981BF06FFB12E70023069388
:1020C000E8E700BFADEA0400D0EA040010DA04003B
:1020D000CCDA04005B290020F4EA040044F5040093
:1020E00029EB0400E4F2040038EB04003EEB0400AA
:1020F00042EB04003EE404005AEB0400DB690FA944
:1021000038469847CDE74FF48033E56D5893002368
:1021100059938DF868310DBB069B0BB1059B33B904
:1021200008229D490DF2691029F0B9F90825139B81
:102130000133B9D0BDF847300A9A9A4208D1E36D0D
:10214000002B40F0DF819DF83E30DE0740F1DA8160
:102150003B680FA99B6938469847E8E71D46E6E7C4
:102160004FF0FF33EEE1D4F860B0069B43B1DDE9F8
:102170000423934222DCE26E884901201EF086FD92
:102180000026D4E919239A4200D0CBB90B9B4FF01B
:1021900000080133C4F868800ED13B680222009227
:1021A000D3F820900CAA5B460FA93846C847BDF863
:1021B000303063660BF1020B424602E0069EE0E718
:1021C000079A636E0993089BB3F5E06F00F0CC812A
:1021D000DFF8D4C100204FF00C0E0EFB00F308997D
:1021E00033F80C80884540F0A98003EB0C0809996E
:1021F000D8F80430994240F0A180D8F808301B8804
:10220000002B00F0AA8102BB0DF2691202EB050857
:10221000FE2BADF8323008F1010000F2948088F80E
:1022200000304FF00109099BFE2B08EB090000F27A
:1022300094809DF8243008F8093001239944002E39
:1022400000F09780049B4B440493D4E919329B1A05
:10225000C5F58072934228BF134613B33A680093C2
:10226000D2F820800DF269125B462A440FA9384645
:10227000C047A36E0344A366002E7CD0049A024498
:102280000492626E9342834477D0B5F5807F74D018
:102290000FAABDF828102046FDF728F8079B4FF03D
:1022A000000B139A013208BF002336B9C5F58072BE
:1022B000092A9CBFC4F860B033469DF83D200F3A10
:1022C00093450AD34FF00008C4F860800FAABDF808
:1022D00028102046FDF70AF843460EB1049AE2663C
:1022E000002B7FF442AF16B9E36E2B44E3662B0A52
:1022F0008DF862312B0C8DF861518DF8633126B168
:10230000DDE90423934280F22481D4E919239A421F
:1023100004BF0023C4E91933139BE36501332ED0B6
:102320001F4901201EF0B2FC642258AB51460398AD
:102330001CF0DCF90FA81AF061FAD2E5013042284E
:102340007FF44BAF09E1FF2353550DF13201022217
:1023500029F0A5F84FF0030965E7099B1693FF23C1
:1023600008F80930042216A9013029F098F805234D
:1023700064E74D4469E7054483E7079B91E7094912
:1023800001201EF083FC0023C4E91733C4E919338C
:10239000E366C822C9E700BF10DA04006BEB040053
:1023A000A6EB0400B9EB0400C4F604006B68A3B309
:1023B00005F1080002F0E6FA804616A81AF02EFA97
:1023C000D4F84090D9F8003058AF00255B6916A9C1
:1023D000484698472E463D7287F8205087F8385077
:1023E00087F850504FF0180B1A9B013317D0042E6A
:1023F00015DCA5B9BDF863202B464FF0FF349E4293
:1024000024D0601C42D10BFB03F17C5894420CBFDA
:102410001C464FF0FF340133F1E79846CDE73246D2
:10242000584901201EF032FC574A0398ADF8346039
:10243000002D0DABCDE90F2351460FAB0CBFC822C9
:1024400064220E971BF078F816A874E7611C1DD162
:102450009DF85A30DB0724D4B8F1000F01D0904525
:102460001FD2042E1FBF0BFB06F3F918FA50344697
:102470001EBF002301364B604FF00100009233462F
:102480002246424908BF01251EF000FC032C08D853
:102490000BFB0474DDF85B3062689A422CBF62600B
:1024A0006360D9F8003016A99B69484698479BE7B6
:1024B000B0F85030ADF8583016A958A81FF0B2FB4C
:1024C00058ABC822514603981BF036F809E5B0F81E
:1024D0005030003318BF01238DF8603158AA51469F
:1024E00003981BF0EFFCFCE4006C1AF0D9F9B0F58E
:1024F000806FACBF002001208DF86001EEE74FF443
:10250000C872D6E50FAE0FCE0DF1580CACE80F0037
:1025100096E807008CE8070016A81BF0F7FF089064
:1025200016A81AF06BF9089BB3F5E06F08D0B3F565
:10253000785F05D0089A40F209139A427FF410AEF2
:10254000082363660B93E36D002B14BF002308235D
:102550000493139B01337FF406AE4FF4FA72514695
:1025600003981BF019F9E5E6002A7FF46EAE0DF230
:10257000691303EB05084FF00403ADF83230042370
:102580004DE600BFC6EB040001340300E5EB040098
:10259000A0F12400FFF70EBC2DE9F04F704DEFB015
:1025A00026AF07908B46286869683B46002403C322
:1025B000384621AECDE928442A941BF087F92868D3
:1025C00069682594334603C32BAD142130464FF080
:1025D0003008CDE9234413F07BFB202221462CA8B0
:1025E000C5F8008028F07FFF284609F03FFA0D2249
:1025F000214613A8CDF8488028F075FF34A809F0CB
:102600001FFA002800F0A180564912A829F064F9A9
:1026100034A809F015FA0446002840F09C800322F3
:102620000DF58F7108A829F08DF98DF8224000234F
:1026300034A88DF82C30ADF830300D9309F000FA45
:1026400020B909A937A813F069FB40B934A812F0E2
:102650000AFA06220DF1D10109A828F020FF4FF057
:1026600080530EACD3F8A4203492D3F8A8300DF1E7
:10267000D00843F44043414606222046359328F0D3
:102680000EFF9DF8242004929DF8252003929DF8CA
:10269000262002929DF8272001920DF1700A9DF8E4
:1026A00028209DF82930009212212F4A504629F007
:1026B00039F8227863790132049262780392A27821
:1026C0000292E2780192227900920DF15C09264A89
:1026D0001221484629F026F8244B0D9408AAC4E993
:1026E000003A3B92224B234A3896C4E90239CDE99D
:1026F0003C250123204A8DF82C300223ADF83030E0
:1027000012681E4B34933E92002312AA0BA943A8D1
:102710008DF8D430CDE936378DF8E4303A933F92D6
:102720008DF80031ADF8043142931FF0A1FA144B3B
:102730004693144B0798CDE90938C82209AB59468E
:102740001AF0FAFE6FB0BDE8F08F112258A912A856
:1027500029F0F8F85CE74323ADF8203067E700BFC5
:10276000DAD70400CCE90400D4E90400F6E9040057
:10277000F2E904005B29002038260020FAE9040071
:10278000B7420500030D03004B68054A43F00F03F1
:10279000934201D1FFF700BF4FF4C8721AF084BF13
:1027A0001F00000D2DE9F0430746D3B0A44888462A
:1027B00014461BF0B7FE064610B94FF4FA72ACE0AF
:1027C000E622002118A828F08EFE04F108001EF071
:1027D0002BFF03680C93044643680D9300F10C0132
:1027E00083680E930FA81FF04EFA63691193A369D3
:1027F0001293E369139304F12401236A149315A837
:102800001FF036FA0C990DF1CF00FDF7DEFA0D9DA1
:10281000284629F069F8132828BF132002462946C4
:1028200004460DF1B10028F03AFE52ABDDF83890C5
:102830001C440025484604F8975C29F055F80928FF
:1028400028BF09200446024649460DF1C50028F07C
:1028500026FE52AB1C449DF83C3004F8835C002BF0
:1028600062D00FA8FDF714F901680DF20110FDF711
:10287000ACFA119D284629F037F8022828BF02201B
:102880000246294604460DF1AE0028F008FE52AB80
:10289000139D1C444FF00009284604F89A9C29F027
:1028A00023F8222828BF22200246294604460DF597
:1028B000917028F0F4FD52AB149D1C44284604F896
:1028C000269C29F011F8102828BF10200446024643
:1028D00029463CA828F0E3FD52AB1C4404F8589C60
:1028E000129CC4B1204628F0FFFF0C2813D108AD7C
:1028F000C5E900992378302B1AD9372B17D80DF159
:10290000130350490093019506AB05AA204628F011
:102910005DFF04282ED04FF4C872414638461AF0A5
:102920003BFF53B0BDE8F0838DF80131A1E7382BB0
:1029300009D0392BEFD10DF113030093019506ABAC
:1029400005AA4149E2E70023079307AE0DF11303FF
:102950000093CDE9016506AB05AA3C49204628F065
:1029600035FF0528D7D13668013EF6B2082E8CBF58
:1029700000260126059B0F3BDBB2402BCBD8069BE4
:10298000013BDBB2342BC6D89DF813302F2BC2D9B4
:10299000392B02D9413B192BBDD80023DAB2AC5CEC
:1029A000A4B1303C092C03F10103F7D9B3E701349A
:1029B00017E0002218A91144D87B08730232187C52
:1029C00048730C2AA3F10303F4D125E0002EA2D012
:1029D0000C22129918A828F062FD9DF85430DBB142
:1029E0001B4EBDF85830A34216D9179B314653F8F9
:1029F00034004FEAC40928F065FF0028D7D1BDF89C
:102A000058309C4203D35E2112481AF079FB179B81
:102A10004B445B68002BCCD10F4B104AC5E9002317
:102A20001EF055F84FF48373A860EB6018A9284690
:102A30001BF0BEFA00287FF4C0AEC9226DE700BFCC
:102A40000046070058E8040081E8040069E8040033
:102A5000F6E904005BE404000100E600484C415440
:102A600070B50446A4B051480D4616460AF032F936
:102A7000237B022B06D040F2F712294620461AF09B
:102A80008BFE0EE0EB88A3F56063032B00F28A80D7
:102A9000DFE803F00902826B324629462046FEF742
:102AA000DFF924B070BD7822002106A828F01BFDB4
:102AB00006F108001EF0B8FD0388ADF80030436849
:102AC0003B4801931BF02EFD10B94FF4FA72D4E786
:102AD000002168461FF064F90021036818936846D6
:102AE0001FF05EF900214368199368461FF058F9FA
:102AF000012183681A9368461FF052F90121036887
:102B00001B9368461FF04CF9012143681C936846EB
:102B10001FF046F9022183681D9368461FF040F9B3
:102B2000022103681E9368461FF03AF902214368A8
:102B30001F9368461FF034F983681E4A20931E4B8A
:102B4000CDE902231DF0C3FF40F20913049006A94A
:102B500002A805931BF02CFA034620B1174A012165
:102B6000002019F071FEC92287E7F36818781F2842
:102B700002D94FF4C87280E7114901224B688240A4
:102B80001A4206D023EA02034B6012F089F9C822E8
:102B900073E740F2991270E7324629462046FFF764
:102BA00001FE7EE74FF4CA7267E700BF2AE804001F
:102BB000004907004D41474E0100780021E904001B
:102BC000A8E700202DE9F04F064687B00F46012008
:102BD000A04914461EF05AF8337B022B08D040F26D
:102BE000F712394630461AF05FFD07B0BDE8F08FA6
:102BF000FB88A3F55C53023B072B00F21C81DFE846
:102C000013F04C0008001A011A011A011A01E2001F
:102C1000F90004F108001EF007FD014604A81FF0AA
:102C200032F89DF810208C4901201EF02FF89DF8F5
:102C3000103013B94FF4FA72D3E704A8FCF728FF59
:102C40002021006828F093FE85B22A46834901209E
:102C50001EF01CF81F2D02D94FF4C872C1E7002DD9
:102C6000E8D004A8FCF714FF04687D49224601203F
:102C70001EF00CF806A811232A4600F80C3D214648
:102C800011F0EFFE224605460346764901201DF06D
:102C9000FDFF002DCED1C822A3E704F108001EF0ED
:102CA000C3FC0578002D70D082888168047B002CDD
:102CB0006ED0B0F810B04369B0F81890B0F81AA010
:102CC000002D00F0C080059104A800210193ADF80B
:102CD0001020D5B20AF07CFA019B8046002C00F04F
:102CE000AD80002104A8ADF810B005935FFA8BFB0E
:102CF0000AF06EFAB8F1000F0DD065B1002318F894
:102D00000320002AA8D001321344DBB21F2BA3D822
:102D1000AB42F4D3A0D170B1BBF1000F0BD00023B4
:102D2000C25C002A98D001321344DBB21F2B93D827
:102D30009B45F5D890D1A9F120039BB243F6E072F0
:102D4000934289D8BAF5004F86D8474B1C68B8F132
:102D5000000F25D120BB204611F02CFF0023E3807B
:102D6000A3894B4502D12389534594D02378A4F8F5
:102D700008A0A4F80C9023B100232370E37011F095
:102D800015FF204611F0CAFE85E729462A468DE741
:102D90002346A34690E7A846A3E72046A346CAE7F2
:102DA0001F2DDBD8BBF11F0FD8D802465B46294642
:102DB000404611F0FDFE02460028CFD02B490120ED
:102DC0001DF064FFCAE7E4682949224601201DF08E
:102DD0005DFF756A0CB92C765DE7204628F084FD0E
:102DE000062802467FF438AF214605F1180028F086
:102DF00056FB50E704F108001EF016FC017890F92C
:102E0000012003293FF628AF92B2B42A3FF624AF3F
:102E1000184B746A1888C0F34310884203D1988F06
:102E200090423FF438AF18889A8761F348101880B1
:102E30000123A3772FE74FF4CA72D2E60028ACD063
:102E4000A346204659E7002CA5D12546A046A34617
:102E5000204670E725E2040048E2040068E204002E
:102E600074E2040080E20400782900209BE2040060
:102E7000BEE20400A8E700202DE9F04104469CB022
:102E80000D460120A0491DF001FF237B022B06D037
:102E900040F2F712294620461AF006FC32E0EB8891
:102EA000A3F55C53092B00F22881DFE813F00A0038
:102EB00051005F003300740026012601D500260171
:102EC0000F010FA811F0CFFD0246F0B99DF83D208B
:102ED00004929DF83E2003929DF83F2002929DF8B7
:102EE000402001929DF8412000929DF84230874A8F
:102EF000122114A828F016FC14ABC822294620463B
:102F00001BF0F8FA1CB0BDE8F081814901201DF0EA
:102F1000BDFEF1E714AE00212022304628F0E3FA8E
:102F20001CA9202321F8503D304611F098FD0028BF
:102F300040F0E680BDF820300B961CAA134403F83D
:102F4000200C01238DF82830724B0F930AAB0AE056
:102F500000238DF85430704B1B681B788DF850306F
:102F60006E4B0F9314AB10930FAB6AE000238DF8F8
:102F70005030ADF8543016938DF85C30ADF86030B9
:102F80001993654B1B689A891B89ADF86A30ADF8B7
:102F90006820634BE5E7634E0DF1280812220021FB
:102FA000404628F0A0FA32885F4901201DF06EFEED
:102FB00037884FF6FF739F4249D05C4A5178937926
:102FC000049191780391D17802911179019152790C
:102FD000009212214D4A404628F0A4FB3788012672
:102FE00043463246524901201DF050FE0023ADF801
:102FF000183007938DF8403011938DF8483010A9A0
:103000000F9B149315A81EF03EFE9DF848308DF8D6
:103010005C300BB1139B189314ABD6B14FF6FF7213
:1030200097424FF00102CDF850801CBF8DF85C2014
:103030001897ADF8182007933E4B089306AB0993F9
:1030400008ABC822294620461AF076FA5AE700262D
:10305000C6E7ADF81860EEE714AE12220021304644
:1030600028F041FA344901201DF010FE1AF082FECA
:103070000746B0B1314A92F8351092F83A300491CF
:1030800092F83610039192F83710029192F83810A6
:10309000019192F83920009212211C4A304628F002
:1030A00041FB33463A46264901201DF0EFFD00233F
:1030B000ADF828301CAB002243F8502D1FB101227F
:1030C0000896ADF828200B931E4B3EE71B4A138849
:1030D000C3F343130F2B08BF00238DF83C30938FAD
:1030E0004FF6FF72934208BF00238DF83D30164B18
:1030F00014930FAB159314ABA3E74FF4CA72C9E650
:103100004FF4FA72C6E600BF30E1040012E1040099
:1031100053E1040000370300782900200237030040
:10312000033703003C2600207BE1040054290020E3
:10313000A7E1040005370300D9E10400A8E7002057
:10314000F6E104000B3703000D37030030B50C46E1
:103150008B680A791D498DB0054601201DF096FD4A
:1031600023681BB9BE211A4819F0CAFF211D284641
:1031700009F05CF818B1426823689A4206D02279B7
:10318000144901201DF082FD0DB030BD037A002BE3
:10319000FAD01DF08FFC0023059323790693019349
:1031A0000123A2680490099301A90B4B07920AA876
:1031B00008931EF03DFD094B029304AB039302AA52
:1031C00008AB074928461CF0AFFDDDE7D3E5040056
:1031D000FCE504000EE604006473050001450300ED
:1031E0000045010030B50B6842689A4285B004463C
:1031F0000D4613D043600222012009491DF046FD0F
:103200000023029302238DF808302B680393054BAB
:103210000194186810B101A9FFF798FF05B030BDFF
:1032200052E604008429002037B504460D490120E8
:103230001DF02CFDE36A9BB901200AF081FA0AF027
:10324000E9F8094B054618681C3009F055F902A940
:1032500004F1240041F8045DFFF7C4FF03B030BD62
:103260000225F4E767E6040094290020A0F1240079
:10327000FFF7DABF73B50446114901201DF006FDC2
:1032800002A90023012684F8316041F8043D04F1CD
:103290002400FFF7A7FFE56A45B90A4B186880F8D4
:1032A000356009F05BF928460AF04AFA01224FF42A
:1032B000FA7120461DF0D8FE6086012002B070BD74
:1032C0000CE7040094290020A0F12400FFF7D2BFEE
:1032D000C36A37B505469BB90AF09CF80446AB6A49
:1032E0009C420BD00749012022461DF0CFFC02A9C9
:1032F00005F1240041F8044DFFF774FF03B030BD21
:103300000224ECE789E704000E4B10B50446036085
:1033100000F588700BF076FE04F14800FEF7CEFA57
:1033200004F14000FCF7F8FA04F12C0000F078FA00
:1033300004F1240003F082FE20461DF0FDFE20462D
:1033400010BD00BF54EF040010B50446FFF7DCFFCA
:10335000204627F0F7F8204610BD000073B504465C
:103360000D460120264916461DF090FC237B022BBA
:1033700007D040F2F712294620461AF095F902B01C
:1033800070BDEB88A3F55C53013B072B34D8DFE815
:1033900003F0043333330F33262F1A4B1B681A788C
:1033A00022B100221A70DA7011F000FCC822E2E7A4
:1033B00002A840F8046D0FF037FB134E328880B23C
:1033C000824219D1636A1A7822B100221A70DA7027
:1033D00011F0ECFB1321308811F0E6FBE6E7666A9A
:1033E0000A483422002128F07EF80123B377DDE774
:1033F000636A00221A76D9E74FF4CA72BBE700BFAE
:1034000032E30400782900203C260020B0E70020A9
:103410000B6813608B88938070470B68136070474C
:1034200049B100230F2012F1FF3204D30B70487012
:103430004B800431F7E77047134607C983E807005C
:10344000704761B1002312F1FF3201F10C0106D384
:1034500021F80C3C21F80A3C41E90233F3E77047BC
:103460000B68136070470B6813607047416810B5B4
:103470005411012302F01F0203FA02F251F8243022
:103480001A420CBF0120002010BD10B54168541134
:10349000012302F01F0203FA02F251F82430134311
:1034A00041F8243010BD8B689B885A430B699858AB
:1034B000003018BF01207047C36810B59BB24FF6AB
:1034C000FF74A34205D0934205D0816831F81330D0
:1034D000F7E7012010BD0020FCE7032303717047CC
:1034E0000223037101207047F0B4C76846688468FE
:1034F0007D10F80744BF7059045906EB050C60466F
:10350000A446F0BC604710B4C4684168621003462A
:10351000E40701EB02009B6848BF8A585DF8044B42
:1035200048BFD358184710B4C468416862100346B6
:10353000E40701EB02009B6848BF8A585DF8044B22
:1035400048BFD35818470000064B074A1A60074A7D
:103550005A60074A9A60074ADA60074B01221A60EC
:10356000704700BF4C330020440E05004A0E050092
:10357000520E05005E0E0500C0290020704743680A
:1035800008461847436881681A68184692681047C9
:103590007047704703230373704703230371704719
:1035A0000223037101207047002303737047002337
:1035B0000371704710B50F4B1A68824218D35C68CC
:1035C0001919884201BF41681846091959604468B1
:1035D00001198A4207D1084909688A421FBF516808
:1035E0001268091941609842026018BF186010BD46
:1035F0001346E1E708E400206C33002038B50D469F
:1036000019B172B10024204638BD52B1546A002C61
:10361000F9D02946204613F0C6FC0028F3D1646A8D
:10362000F5E74468F3E708469200002127F05BBF06
:1036300010B5044626F086FF204610BD10B504469E
:1036400026F080FF204610BD10B5044626F07AFF14
:10365000204610BD70B5056904461DF073FA2B684D
:103660009B68834204D04FF48171084819F048FDEB
:10367000E5686168A3686A10EC0701EB020048BFC7
:103680008A58BDE8704048BFD3581847260A05003D
:1036900010B5054B0360283304464360406908B108
:1036A00014F0D8F9204610BDD41005000148FFF7EA
:1036B000EFBF00BFF031002010B50446FFF7E8FF70
:1036C000204626F03FFF204610BDCB8910B51F33A2
:1036D00044685B1100218B4219D054F821200AB9AB
:1036E0000131F8E7B2FA82F3C3F11F03DBB203EB57
:1036F00041135911012298B203F01F0302FA03F398
:1037000054F8212022EA030244F8212010BD4FF68C
:10371000FF70FBE7F8B50546214A0E2114301DF075
:10372000D5FEAC6B626D05F1340604F1580100233F
:103730009A421DD051F8040B864203F101072CD1A7
:1037400002F18042013A04F10C00D21A03F1140193
:103750001333920000EB810100EB830027F0AAFEF7
:10376000636D5A1E1133626504EB830400232361E9
:103770000C4A072105F12C001DF0A8FE40F20711AC
:1037800005F15C001EF07CF94FF4847105F16400D2
:103790001EF076F900232B71F8BD3B46C8E700BF49
:1037A000F80B05007A0C050010B5124A04460E21EC
:1037B00014301DF0A9FE104A072104F12C001DF061
:1037C000A3FEA36B5A6D511C596503EB820304F1F0
:1037D00034029A6540F2071104F15C001EF067F9AB
:1037E0004FF4847104F164001EF061F9012020712E
:1037F00010BD00BFF80B05007A0C050010B5054A96
:10380000012104461DF080FEC82806BF0120207358
:10381000002010BD240A0500A0F10800FFF7EEBF4C
:1038200010B5034B036004461EF074F9204610BD2A
:103830000812050010B50446FFF7F2FF204626F0F7
:1038400081FE204610BD000010B5034B0360044606
:103850001EF060F9204610BD2812050010B5044680
:10386000FFF7F2FF204626F06DFE204610BD10B592
:1038700004461EF038F9204610BD10B504461EF06F
:1038800032F9204610BD10B504461EF02CF9204632
:1038900010BD10B504461EF026F9204610BD10B527
:1038A00004461EF020F9204610BD10B504461EF057
:1038B0001AF9204610BD000010B5044B0360044601
:1038C00040691FF0BBF9204610BD00BFC0100500C5
:1038D00010B50446FFF7F0FF20461EF004F920461D
:1038E00010BD10B504460430FFF71DFE2046BDE8AC
:1038F0001040FFF7EDBF000030B5B0F86420C82AD3
:1039000085B0044618D190F841301BB390F84010B0
:1039100090F84250ADF80030194400F118030193BB
:103920000E4B0293A942B8BF642202AB00F108011A
:10393000CDF80CD019F000FEB4F86420C82A04D0E9
:1039400004F10801204619F0AFFE6FF47F43636174
:1039500005B030BDCC23A0F86430EDE70A010300C8
:1039600010B5CA8840F601539A429EB047D1264B03
:10397000264A1B680293264B0A921B680393254B29
:10398000254A1B680493254B0893254C0C92012370
:103990008DF824308DF82C308DF83430214A8DF894
:1039A0003C308DF8443014948DF814301E4C0E9237
:1039B0000B231E4A1694ADF818301D4C109208AB1C
:1039C0001C4A189407931C4C1C4B12921A94002208
:1039D00000931B4C8DF84C2002AB8DF854208DF8D1
:1039E0005C208DF864208DF86C208DF874201C9478
:1039F000C82201936B4619F09FFD1EB010BD4FF415
:103A0000C87219F051FEF8E770260020250D050058
:103A1000742600206C2600202D0D05001A0D0500CF
:103A2000630D0500380D0500710D05004A0D0500F8
:103A3000850D0500550D0500920D0500020D0300D2
:103A4000A10D050010B5074B03F1080254330446DD
:103A5000026040F8083F1EF05DF8204620F09EFA14
:103A6000204610BD9C0E0500A0F10800FFF7EABF3C
:103A700010B50446FFF7E6FF204626F063FD20461A
:103A800010BDA0F10800FFF7F3BF000070B5124CA5
:103A9000124E25460021204619F016FE104B45F81F
:103AA000083B104A0823314601201DF0EFF80021A1
:103AB000284619F009FE0C4BA3600C4A0823314636
:103AC00001201DF0E3F80A4B0A480122BDE87040CE
:103AD0001A6027F040BA00BF603200200A0D0500CE
:103AE00074730500A8130500647405001C14050018
:103AF000B82900204D4102000A4B1B68DB0710B5B6
:103B0000044601D4FFF7C2FF40F2151106481DF02C
:103B1000B7FF064A064803211DF0D8FC0023237195
:103B200010BD00BFB8290020603200206A0C0500DB
:103B3000683200200A4B1B68DB0710B5044601D42D
:103B4000FFF7A4FF40F2151106481DF0B0FF064A2A
:103B5000064803211DF0D8FC0120207110BD00BFD4
:103B6000B8290020603200206A0C0500683200206D
:103B700070B5234C234D26460021204619F0A4FDA4
:103B8000214B46F8083B214A0823294601201DF015
:103B90007DF80021304619F097FD1D4BA3601D4AAA
:103BA0000823294601201DF071F8002104F11000BE
:103BB00019F08AFD184B2361184A08232946012071
:103BC0001DF064F8002104F1180019F07DFD144B7C
:103BD000A3614FF6FF73238429461423114A012061
:103BE0001DF054F8082204F12400002127F07BFC8A
:103BF0000D4B0E480122BDE870401A6027F0ABB9AA
:103C0000343200200A0D0500EC730500F71305009F
:103C10002874050009140500A07405002F14050080
:103C2000B0730500E5130500B429002069410200C6
:103C30000F4B1B68DB0710B5044601D4FFF798FF54
:103C400040F20B110B481DF032FF4FF485710A480A
:103C50001DF02DFF094A0A4805211DF055FC40F2D0
:103C6000091108481DF023FF0120207110BD00BF7D
:103C7000B4290020343200203C320020700C0500B2
:103C8000443200204C32002010B500220446034983
:103C90001DF08CFF024B2360204610BDF00B050089
:103CA0000812050038B5134B1B68DB07054601D425
:103CB000FFF75EFF104C40F20B1120461DF0E0FEB6
:103CC0004FF4857104F108001DF0DAFE0B4A05215E
:103CD00004F110001DF0FAFB218C04F118001DF016
:103CE000FDFA40F2091104F118001DF0C9FE00238D
:103CF0002B7138BDB429002034320020700C05002F
:103D000000B5C82B8DB005D1C06A13F0F3F90DB022
:103D10005DF804FB40F2AD118B422FD1184B4FF0F0
:103D200080511960BFF34F8FBFF36F8F90F8282039
:103D30008DF80B2000230222CDE9033307920323E1
:103D4000104A8DF814300692436A0F4A0F49CDE9A4
:103D500008234FF003130A930DF10B030B9306ABEB
:103D60000093012203AB1FF077FC1DF038FA002806
:103D7000CDD13D21064819F0C3F9C8E74321F9E741
:103D800004ED00E0744605000C0003000F00110173
:103D9000140C050000B58BB090F828308DF80F306A
:103DA000022305930E4B426A04930E4B0E49CDE954
:103DB00006324FF0031308930DF10F03099304AB80
:103DC00000930122094B1FF047FC1DF008FA18B9B7
:103DD0002D21074819F094F90BB05DF804FB00BFE2
:103DE000744605000C0003000F001101C8E8002014
:103DF000140C050080F8741C0021D0F8700C1CF025
:103E000031BFA0F12400FFF7F5BF000013B5194B37
:103E10001B6800221A6090F8543C0C4633B10B78B2
:103E200015488DF8043001A919F010FE23781348C5
:103E30008DF8043001A919F009FE237810488DF897
:103E4000043001A919F002FE0E4B1B68DB0701D4F8
:103E5000FFF77AFB23780C488DF8043001A919F09C
:103E6000F5FD237809488DF8043001A919F0EEFD1D
:103E700002B010BD5CE70020F4E80020E429002037
:103E800078E80020C02900204C33002068E800209A
:103E90002DE9F043B0F8563C8B428BB005463BD140
:103EA0001F49DFF8909001201CF0F0FEB5F8561C79
:103EB00028461DF0BDF81B4A137843F01003012477
:103EC000137006AF10F0ECFF4FF0031803AE164B63
:103ED00016490097224628468DF80C400794CDF8E5
:103EE0001890CDF8208009961FF0B6FB0023CDE98D
:103EF000033303238DF814300DF10B03099300975E
:103F0000334622460A498DF80B402846CDE90694EF
:103F1000CDF820801FF0A0FB0BB0BDE8F08300BF00
:103F2000BF0D0500A8E70020C8E800201F00030B14
:103F30001F00000964730500F7B502AD0B7805F8A2
:103F4000043D06460C462C48294619F07FFD2B4BB4
:103F50001A68D10704D42A4A2A49116001221A603A
:103F6000237827488DF80430294619F06FFD264B39
:103F70001B68DA0701D4FFF7E7FA237823488DF8A6
:103F80000430294619F062FD237821488DF8043069
:103F9000294619F05BFD23781E488DF80430294628
:103FA00019F054FD23781C4F012B10D13A7812F0F0
:103FB00010020CD1B6F8561C4FF6FF73994206D189
:103FC00042F2107130461DF04FF8A6F8560C3B78BF
:103FD000DB060FD5237811488DF80430294619F0F7
:103FE00035FD2378012B08BF86F8543C0C4B1B6829
:103FF00024361E6003B0F0BD68E80020C42900200C
:1040000060330020B80D0500C02900204C3300208B
:1040100078E80020E4290020A8E70020F4E8002048
:104020005CE700201FB590F8743C53B10023CDE944
:10403000013302238DF80C30802201AB02491FF0BE
:1040400079FE05B05DF804FB1F00013237B5054667
:1040500002AC0D4901201CF019FE022304F8043DB6
:1040600028462146FFF7D2FE0323214628468DF835
:104070000430FFF7CBFE054B0549052228461FF00B
:1040800059FE03B030BD00BFFE0D0500C8E800209A
:104090001F00000AFFF7DABF0E4B994213B5044622
:1040A0000AD10D4B0D4901AA1DF09EF91DF097F89C
:1040B00020B92046FFF7CAFF02B010BD084B019996
:1040C000032220461FF036FE1DF089F80028F3D1A8
:1040D000EFE700BF1F00000AC4E80020EC0D050058
:1040E000C8E800201CF0F3BC38B5044608460D466D
:1040F00027F0FAFB102803D915210A4819F000F817
:10410000284627F0F1FB18B91621064818F0F8FFE9
:1041100010222946204627F015FC00232374204650
:1041200038BD00BFAF0D050008B5064B1B68013355
:1041300003D0C721044820F04CFD202383F31188CD
:10414000FEE700BFF8E300200217050010B5054C9C
:1041500004F1080015F0D4FD2046BDE8104015F02C
:1041600093BD00BF6032002010B5094C04F1180067
:1041700015F062FD04F1100015F0AEFD04F1080029
:1041800015F06EFD2046BDE8104015F091BD00BF52
:10419000343200202DE9F8434FF6FF7399428046F0
:1041A0000D46914614D00E0A00223146FFF726FA3A
:1041B000044638B14768294638461DF081FB18B1DE
:1041C000C9F80070BDE8F883224631464046EDE765
:1041D0000020F7E738B50C4609881546FFF7DAFFE7
:1041E00050B10378012B07D18388238021462868AA
:1041F000BDE838401DF085BB38BD2DE9F8434FF6CA
:10420000FF75A94281460F46164617D04FEA11287E
:1042100000224146FFF7F2F93060346874B1394644
:10422000204612F0A2FE28B18378DB0707D403886A
:10423000AB4204D1224641464846EBE70020BDE8A8
:10424000F883000030B585B0144601AA1D46FFF77B
:10425000D4FF88B1019B5A685268916C0A44801A55
:10426000074A40105043CDE902302A46214602A8B1
:1042700012F0D9FE05B030BD4FF4CA70FAE700BFA6
:10428000B76DDBB603464868097829B130F81210DB
:1042900019805A601846704700EBC20292E803008A
:1042A00083E80300F6E7036AC91A836910309B8824
:1042B000B1FBF3F189B212F069B800002DE9F843BF
:1042C0000546984655F8143B044618680F46914633
:1042D00013F082FA2846002112F087F84FF6FF7398
:1042E000984205461BD0E369666A99884143731872
:1042F000705C69F3000002466FF387027254BDF8E8
:10430000202083F801805A80636C394653F82500D9
:1043100013F02CFC18B99421044818F0F1FE23681E
:10432000186813F047FA2846BDE8F883EA0C050040
:1043300010B50378012B044603D07021024818F011
:10434000DFFE0223237010BDD40B05004B7A70B53D
:1043500005460C46164623B94FF46C71064818F012
:10436000CFFE2046FFF7E4FF32462146A869034B03
:10437000BDE8704015F04ABBD40B0500D4E800201E
:104380002DE9F041D1E9017807F00F030F2B044626
:104390000D4610D0406913F01FFA266C41463A468C
:1043A000304612F008FD014610B1304612F0E7FB2E
:1043B000606913F0FFF929462046C822BDE8F041A4
:1043C000FFF7C4BFA0F10400FFF7DABF7047000099
:1043D00070B52C4BBFF35B8F92B0012253E8001FE6
:1043E000002903D143E80024002CF7D1BFF35B8FF1
:1043F00046D1C36901930022DB688DF8082003933E
:1044000001A812F058FA044628B30369DD781B7935
:104410001D440023CDE90433EDB2ADF8183000F1AE
:104420001C0604A9304618F075FE80B17DB107AABC
:1044300004A9204612F049FA9DF81C30013B012BDB
:1044400002D807A812F0D0FA013DEDB2E9E701A8C1
:1044500012F024FAD4E713F0A5FB07948DF8284056
:104460008DF830408DF838408DF84040224604AB3E
:10447000012107A8541C11F04FFF01282246F6D055
:1044800012B070BD182A00207FB504460D461646AE
:10449000406913F0A1F901AB2946324604F12C0022
:1044A000FFF7D0FE0546606913F084F9A5F1C80353
:1044B0005842584104B070BD70B5054686B00C46F0
:1044C0004069C1F3031613F087F96B4603AA210C68
:1044D00005F12C00FFF7B6FEC8281BD1059B9B7881
:1044E000C3F34303B34215D1BDF808204FF6FF7163
:1044F0008A420FD000206FF3030063F307106FF3BD
:104500000F2062F31F400446686913F053F92046F8
:1045100006B070BD004CF7E7F000FFFFC3691A78E2
:104520008A4203D95B6853F8210070470E2907D8E7
:10453000D86830B190F85C305B1A002B02DB00D0F9
:1045400000207047C06EF4E710B5FFF7E7FF0446A0
:1045500020B940F62301024818F0D2FD204610BDD4
:10456000D40B05002DE9F74F1546064640690C4669
:1045700006F12C0713F030F9002385F8FE3001AA6C
:1045800021463846FFF739FE002837D0FE244FF683
:10459000FF794FF02F08B0F804A0019BCA4506D15F
:1045A000198BC9B101AA3846FFF727FEF3E7018846
:1045B00058681DF0B5F9834627F096F9241A02468B
:1045C0002819013C594626F06AFF05F80480514637
:1045D000019812F0CAFCDEE7C4F1FF02291928464F
:1045E00026F068FF0124706913F0E4F8002C0CBF7A
:1045F0004FF4CA70C82003B0BDE8F08F0446F2E75C
:104600004FF6FF7399421FBF8369006A9B8801FBC5
:10461000030008BF0020704710B503784178428836
:1046200000201C096FF30300C3F3000363F30000D1
:1046300064F3071061F30F2062F31F4010BD03689D
:1046400080889A681B69928800FB02307047436833
:104650001A6810B494680A460146184623465DF865
:10466000044B184703688288DB899A4210B50446D8
:104670000BD0A18820680131C38989B28B42A18007
:1046800003D0FFF7E4FF0028F3D0204610BD70B53B
:1046900004460E461546FFF7DAFF28B1A36899884D
:1046A000236906FB0131296070BD07B509894FF602
:1046B000FF7399420BD0406B01AA0830FFF7E7FF68
:1046C00010B1019B1B68187903B05DF804FB002052
:1046D000FAE711F47F4FF8B507460D46164602D0AB
:1046E00001242046F8BD1946FFF7DFFF04460028E5
:1046F000F6D1C5F303113846FFF726FFD6E901537B
:104700000746598928461DF037F80028E9D09DF85A
:10471000183030F8131028461DF03FF80028E0D07C
:104720003A698368926893430CBF01240024D8E758
:1047300007B5406B01AA0830FFF7A9FF08B1019B3C
:10474000186803B05DF804FB07B5806B01AAC1F3DC
:104750000E010830FFF79BFF08B1019B186803B0FA
:104760005DF804FB2DE9F743B1F80A804E780D4659
:10477000414617469946FFF7E7FF06F00F06044645
:1047800040B92E4943463246012003B0BDE8F0430C
:104790001CF07CBAB31FDBB2012BD5F8048014D80F
:1047A000274E06EBC30256F8336051684A10CB0718
:1047B00048BFA358698848BF9E5910443B464246AB
:1047C000B44603B0BDE8F0436047042E15D01D4940
:1047D00001EBC60351F836605A685310D1071844EC
:1047E00048BFE358698848BF9E59CDF800903B46C2
:1047F0004246B04703B0BDE8F083AB685A0707D420
:1048000003686988CDF80090DD6942463B46A847B9
:10481000B9F8003033B123684A465D6A0A4B414615
:104820002046A84794F82130002BE3D1A7F1C80314
:104830005F425F4184F82170DCE700BF850A050014
:10484000440A0500A40B0500B8E80020A0F104000C
:10485000FFF788BF2DE9F0470D468046084616460B
:104860001F469DF82090FFF763FDAB686868C0F3B2
:10487000072C584010F0F004C3F30311C3F30722D0
:1048800004D1944502D1B9F1000F17D042B13B4693
:1048900032462946D8F81800BDE8F04715F0B6B8FA
:1048A000B4FA84F440466409FFF74EFE08943B4690
:1048B00032462946BDE8F04712F042BE40463B462C
:1048C00032462946FFF74EFFC820BDE8F0870000BA
:1048D0002DE9F0410C0C214615461E46069FFFF7B8
:1048E00033FF30B9224607490120BDE8F0411CF0F2
:1048F000CDB903685C6A32463B462946A446BDE80A
:10490000F0416047AF0A0500A0F10400FFF7E0BFE7
:10491000092808B505D00448272118F0F1FB00202C
:1049200008BD0248FCE700BF910C050094E8002098
:1049300010B5044B0360044640691EF07FF9204621
:1049400010BD00BFCCCC050010B50446FFF7F0FF4A
:1049500020461DF0C8F8204610BD10B504460430AE
:10496000FEF7D1FD2046BDE81040FFF7EDBF07B5CB
:10497000042241680DEB020026F091FD019803B07E
:104980005DF804FB07B5042241680DEB020026F038
:1049900086FD019803B05DF804FB704710B5054B28
:1049A00003600446C06A13F063F820461CF0C4FBA1
:1049B000204610BD1CCF050010B50446FFF7EEFFE2
:1049C000204625F0BFFD204610BD0000000000007D
:1049D00030B54FF0804487B010F04AFAD4F818355B
:1049E00043F44033C4F8183520F034F900201FF0A8
:1049F000A9FD794B7949186801224FF4007380684A
:104A000026F09EFD764901201CF040F975480CF017
:104A1000BBFF0023C4F804310123A360D4F80431A0
:104A2000002BFBD0704901201CF030F920F080F8F9
:104A30006E4B6F49186001201CF028F920F056FDDC
:104A400020B14FF487716B4818F05AFB20F070F8D2
:104A5000694B186020B94FF48971664818F050FB13
:104A60001FF04EFB654B186020B94FF48B71614805
:104A700018F046FB624C6349052323704FF08043D6
:104A80000120D3F820552A461CF000F9EBB25E4A0B
:104A900003F07F01117003B1237022785B4C9542C3
:104AA0000BD05B4901201CF0F1F8FF21012006F03A
:104AB00097FF2178012006F095FF002555492570C4
:104AC00001201CF0E3F8544B544C1D60544B002162
